{
  "contractName": "Main",
  "abi": [
    {
      "constant": true,
      "inputs": [],
      "name": "chargeZuz",
      "outputs": [
        {
          "name": "",
          "type": "bool"
        }
      ],
      "payable": false,
      "stateMutability": "view",
      "type": "function"
    },
    {
      "constant": true,
      "inputs": [
        {
          "name": "",
          "type": "uint256"
        }
      ],
      "name": "prices",
      "outputs": [
        {
          "name": "",
          "type": "uint256"
        }
      ],
      "payable": false,
      "stateMutability": "view",
      "type": "function"
    },
    {
      "inputs": [
        {
          "name": "ZuzAddress",
          "type": "address"
        }
      ],
      "payable": false,
      "stateMutability": "nonpayable",
      "type": "constructor"
    },
    {
      "anonymous": false,
      "inputs": [
        {
          "indexed": false,
          "name": "balloutAddress",
          "type": "address"
        },
        {
          "indexed": false,
          "name": "correlationId",
          "type": "uint256"
        }
      ],
      "name": "balloutCreated",
      "type": "event"
    },
    {
      "anonymous": false,
      "inputs": [
        {
          "indexed": false,
          "name": "message",
          "type": "string"
        },
        {
          "indexed": false,
          "name": "from",
          "type": "address"
        },
        {
          "indexed": false,
          "name": "to",
          "type": "address"
        },
        {
          "indexed": false,
          "name": "value",
          "type": "uint256"
        }
      ],
      "name": "Log",
      "type": "event"
    },
    {
      "constant": false,
      "inputs": [
        {
          "name": "newOwner",
          "type": "address"
        }
      ],
      "name": "changeOwner",
      "outputs": [],
      "payable": false,
      "stateMutability": "nonpayable",
      "type": "function"
    },
    {
      "constant": false,
      "inputs": [
        {
          "name": "candidates",
          "type": "address[]"
        },
        {
          "name": "correlationId",
          "type": "uint256"
        }
      ],
      "name": "createBallot",
      "outputs": [
        {
          "name": "",
          "type": "bool"
        }
      ],
      "payable": false,
      "stateMutability": "nonpayable",
      "type": "function"
    },
    {
      "constant": false,
      "inputs": [
        {
          "name": "voterAddress",
          "type": "address"
        },
        {
          "name": "amount",
          "type": "uint256"
        }
      ],
      "name": "payForService",
      "outputs": [],
      "payable": false,
      "stateMutability": "nonpayable",
      "type": "function"
    },
    {
      "constant": false,
      "inputs": [
        {
          "name": "newPrice",
          "type": "uint256"
        }
      ],
      "name": "updateBallotPrice",
      "outputs": [],
      "payable": false,
      "stateMutability": "nonpayable",
      "type": "function"
    },
    {
      "constant": true,
      "inputs": [],
      "name": "getBallotsAddresses",
      "outputs": [
        {
          "name": "",
          "type": "address[]"
        }
      ],
      "payable": false,
      "stateMutability": "view",
      "type": "function"
    },
    {
      "constant": true,
      "inputs": [
        {
          "name": "contractAddress",
          "type": "address"
        }
      ],
      "name": "isKnownContract",
      "outputs": [
        {
          "name": "",
          "type": "bool"
        }
      ],
      "payable": false,
      "stateMutability": "view",
      "type": "function"
    }
  ],
  "bytecode": "0x608060405233600160006101000a81548173ffffffffffffffffffffffffffffffffffffffff021916908373ffffffffffffffffffffffffffffffffffffffff1602179055506001600460146101000a81548160ff021916908315150217905550600060055534801561007157600080fd5b506040516020806126868339810180604052810190808051906020019092919050505080600460006101000a81548173ffffffffffffffffffffffffffffffffffffffff021916908373ffffffffffffffffffffffffffffffffffffffff160217905550600460009054906101000a900473ffffffffffffffffffffffffffffffffffffffff1673ffffffffffffffffffffffffffffffffffffffff1663818305936040518163ffffffff167c0100000000000000000000000000000000000000000000000000000000028152600401602060405180830381600087803b15801561015b57600080fd5b505af115801561016f573d6000803e3d6000fd5b505050506040513d602081101561018557600080fd5b8101908080519060200190929190505050600260006101000a81548173ffffffffffffffffffffffffffffffffffffffff021916908373ffffffffffffffffffffffffffffffffffffffff160217905550624c4b406000808060038111156101e957fe5b8152602001908152602001600020819055505061247b8061020b6000396000f30060806040526004361061008e576000357c0100000000000000000000000000000000000000000000000000000000900463ffffffff1680630570a72d14610093578063612ac9df146100c257806364e683561461014a578063a6f9dae1146101a5578063bbb26c63146101e8578063bc31c1c114610235578063da24450d14610276578063de25db0f146102a3575b600080fd5b34801561009f57600080fd5b506100a861030f565b604051808215151515815260200191505060405180910390f35b3480156100ce57600080fd5b506101306004803603810190808035906020019082018035906020019080806020026020016040519081016040528093929190818152602001838360200280828437820191505050505050919291929080359060200190929190505050610322565b604051808215151515815260200191505060405180910390f35b34801561015657600080fd5b5061018b600480360381019080803573ffffffffffffffffffffffffffffffffffffffff169060200190929190505050610691565b604051808215151515815260200191505060405180910390f35b3480156101b157600080fd5b506101e6600480360381019080803573ffffffffffffffffffffffffffffffffffffffff169060200190929190505050610734565b005b3480156101f457600080fd5b50610233600480360381019080803573ffffffffffffffffffffffffffffffffffffffff16906020019092919080359060200190929190505050610812565b005b34801561024157600080fd5b5061026060048036038101908080359060200190929190505050610997565b6040518082815260200191505060405180910390f35b34801561028257600080fd5b506102a1600480360381019080803590602001909291905050506109af565b005b3480156102af57600080fd5b506102b8610a32565b6040518080602001828103825283818151815260200191508051906020019060200280838360005b838110156102fb5780820151818401526020810190506102e0565b505050509050019250505060405180910390f35b600460149054906101000a900460ff1681565b60008060003385600160009054906101000a900473ffffffffffffffffffffffffffffffffffffffff1686610355610ac0565b808573ffffffffffffffffffffffffffffffffffffffff1673ffffffffffffffffffffffffffffffffffffffff168152602001806020018473ffffffffffffffffffffffffffffffffffffffff1673ffffffffffffffffffffffffffffffffffffffff168152602001838152602001828103825285818151815260200191508051906020019060200280838360005b838110156103ff5780820151818401526020810190506103e4565b5050505090500195505050505050604051809103906000f080158015610429573d6000803e3d6000fd5b50915060038290806001815401808255809150509060018203906000526020600020016000909192909190916101000a81548173ffffffffffffffffffffffffffffffffffffffff021916908373ffffffffffffffffffffffffffffffffffffffff160217905550507fcd5ccef42150bba339d32bd97c3d9d6b314660bb568bf76ecd704b3f378fd1428285604051808373ffffffffffffffffffffffffffffffffffffffff1673ffffffffffffffffffffffffffffffffffffffff1681526020018281526020019250505060405180910390a1600460009054906101000a900473ffffffffffffffffffffffffffffffffffffffff1673ffffffffffffffffffffffffffffffffffffffff166323b872dd33600160009054906101000a900473ffffffffffffffffffffffffffffffffffffffff1660008080600381111561056e57fe5b8152602001908152602001600020546040518463ffffffff167c0100000000000000000000000000000000000000000000000000000000028152600401808473ffffffffffffffffffffffffffffffffffffffff1673ffffffffffffffffffffffffffffffffffffffff1681526020018373ffffffffffffffffffffffffffffffffffffffff1673ffffffffffffffffffffffffffffffffffffffff1681526020018281526020019350505050602060405180830381600087803b15801561063557600080fd5b505af1158015610649573d6000803e3d6000fd5b505050506040513d602081101561065f57600080fd5b810190808051906020019092919050505090506001151581151514151561068557600080fd5b60019250505092915050565b600080600090505b600380549050811015610729578273ffffffffffffffffffffffffffffffffffffffff166003828154811015156106cc57fe5b9060005260206000200160009054906101000a900473ffffffffffffffffffffffffffffffffffffffff1673ffffffffffffffffffffffffffffffffffffffff16141561071c576001915061072e565b8080600101915050610699565b600091505b50919050565b33600160009054906101000a900473ffffffffffffffffffffffffffffffffffffffff1673ffffffffffffffffffffffffffffffffffffffff168173ffffffffffffffffffffffffffffffffffffffff1614151561079157600080fd5b600073ffffffffffffffffffffffffffffffffffffffff168273ffffffffffffffffffffffffffffffffffffffff16141515156107cd57600080fd5b81600160006101000a81548173ffffffffffffffffffffffffffffffffffffffff021916908373ffffffffffffffffffffffffffffffffffffffff1602179055505050565b60003361081e81610691565b151561082657fe5b600460009054906101000a900473ffffffffffffffffffffffffffffffffffffffff1673ffffffffffffffffffffffffffffffffffffffff166323b872dd85600160009054906101000a900473ffffffffffffffffffffffffffffffffffffffff16866040518463ffffffff167c0100000000000000000000000000000000000000000000000000000000028152600401808473ffffffffffffffffffffffffffffffffffffffff1673ffffffffffffffffffffffffffffffffffffffff1681526020018373ffffffffffffffffffffffffffffffffffffffff1673ffffffffffffffffffffffffffffffffffffffff1681526020018281526020019350505050602060405180830381600087803b15801561094157600080fd5b505af1158015610955573d6000803e3d6000fd5b505050506040513d602081101561096b57600080fd5b810190808051906020019092919050505091506001151582151514151561099157600080fd5b50505050565b60006020528060005260406000206000915090505481565b33600160009054906101000a900473ffffffffffffffffffffffffffffffffffffffff1673ffffffffffffffffffffffffffffffffffffffff168173ffffffffffffffffffffffffffffffffffffffff16141515610a0c57600080fd5b81600080806003811115610a1c57fe5b8152602001908152602001600020819055505050565b60606003805480602002602001604051908101604052809291908181526020018280548015610ab657602002820191906000526020600020905b8160009054906101000a900473ffffffffffffffffffffffffffffffffffffffff1673ffffffffffffffffffffffffffffffffffffffff1681526020019060010190808311610a6c575b5050505050905090565b60405161197f80610ad1833901905600608060405260006007553480156200001657600080fd5b506040516200197f3803806200197f83398101806040528101908080519060200190929190805182019291906020018051906020019092919080519060200190929190505050826005908051906020019062000074929190620001ee565b5081600660006101000a81548173ffffffffffffffffffffffffffffffffffffffff021916908373ffffffffffffffffffffffffffffffffffffffff16021790555033600260006101000a81548173ffffffffffffffffffffffffffffffffffffffff021916908373ffffffffffffffffffffffffffffffffffffffff16021790555033600360006101000a81548173ffffffffffffffffffffffffffffffffffffffff021916908373ffffffffffffffffffffffffffffffffffffffff16021790555083600160006101000a81548173ffffffffffffffffffffffffffffffffffffffff021916908373ffffffffffffffffffffffffffffffffffffffff1602179055508060078190555060026000808673ffffffffffffffffffffffffffffffffffffffff1673ffffffffffffffffffffffffffffffffffffffff16815260200190815260200160002060000160146101000a81548160ff02191690836002811115620001df57fe5b021790555050505050620002c3565b8280548282559060005260206000209081019282156200026a579160200282015b82811115620002695782518260006101000a81548173ffffffffffffffffffffffffffffffffffffffff021916908373ffffffffffffffffffffffffffffffffffffffff160217905550916020019190600101906200020f565b5b5090506200027991906200027d565b5090565b620002c091905b80821115620002bc57600081816101000a81549073ffffffffffffffffffffffffffffffffffffffff02191690555060010162000284565b5090565b90565b6116ac80620002d36000396000f3006080604052600436106100af576000357c0100000000000000000000000000000000000000000000000000000000900463ffffffff16806330c880c3146100b45780634041ef541461010b5780634aba5f341461016257806358b8112c1461021657806360f135631461025b57806371851be81461028657806372a6d4a0146102e15780638963603514610312578063a85144f41461033d578063b13c744b146103a2578063d2758ddb1461040f575b600080fd5b3480156100c057600080fd5b506100f5600480360381019080803573ffffffffffffffffffffffffffffffffffffffff169060200190929190505050610474565b6040518082815260200191505060405180910390f35b34801561011757600080fd5b5061014c600480360381019080803573ffffffffffffffffffffffffffffffffffffffff16906020019092919050505061048c565b6040518082815260200191505060405180910390f35b34801561016e57600080fd5b506101776104e9565b604051808060200180602001838103835285818151815260200191508051906020019060200280838360005b838110156101be5780820151818401526020810190506101a3565b50505050905001838103825284818151815260200191508051906020019060200280838360005b838110156102005780820151818401526020810190506101e5565b5050505090500194505050505060405180910390f35b34801561022257600080fd5b5061024160048036038101908080359060200190929190505050610670565b604051808215151515815260200191505060405180910390f35b34801561026757600080fd5b50610270610b43565b6040518082815260200191505060405180910390f35b34801561029257600080fd5b506102c7600480360381019080803573ffffffffffffffffffffffffffffffffffffffff169060200190929190505050610b4d565b604051808215151515815260200191505060405180910390f35b3480156102ed57600080fd5b506102f6610bf0565b604051808260ff1660ff16815260200191505060405180910390f35b34801561031e57600080fd5b50610327610c54565b6040518082815260200191505060405180910390f35b34801561034957600080fd5b50610388600480360381019080803573ffffffffffffffffffffffffffffffffffffffff16906020019092919080359060200190929190505050610c5a565b604051808215151515815260200191505060405180910390f35b3480156103ae57600080fd5b506103cd60048036038101908080359060200190929190505050610fed565b604051808273ffffffffffffffffffffffffffffffffffffffff1673ffffffffffffffffffffffffffffffffffffffff16815260200191505060405180910390f35b34801561041b57600080fd5b5061045a600480360381019080803573ffffffffffffffffffffffffffffffffffffffff1690602001909291908035906020019092919050505061102b565b604051808215151515815260200191505060405180910390f35b60046020528060005260406000206000915090505481565b600061049782610b4d565b15156104a257600080fd5b600460008373ffffffffffffffffffffffffffffffffffffffff1673ffffffffffffffffffffffffffffffffffffffff168152602001908152602001600020549050919050565b606080606060006005805490506040519080825280602002602001820160405280156105245781602001602082028038833980820191505090505b509150600090505b6005805490508110156105db576004600060058381548110151561054c57fe5b9060005260206000200160009054906101000a900473ffffffffffffffffffffffffffffffffffffffff1673ffffffffffffffffffffffffffffffffffffffff1673ffffffffffffffffffffffffffffffffffffffff1681526020019081526020016000205482828151811015156105c057fe5b9060200190602002018181525050808060010191505061052c565b6005828180548060200260200160405190810160405280929190818152602001828054801561065f57602002820191906000526020600020905b8160009054906101000a900473ffffffffffffffffffffffffffffffffffffffff1673ffffffffffffffffffffffffffffffffffffffff1681526020019060010190808311610615575b505050505091509350935050509091565b600080600160009054906101000a900473ffffffffffffffffffffffffffffffffffffffff1673ffffffffffffffffffffffffffffffffffffffff163373ffffffffffffffffffffffffffffffffffffffff16141515156106d057600080fd5b6000803373ffffffffffffffffffffffffffffffffffffffff1673ffffffffffffffffffffffffffffffffffffffff16815260200190815260200160002060010160009054906101000a900473ffffffffffffffffffffffffffffffffffffffff1690506107876001600460008473ffffffffffffffffffffffffffffffffffffffff1673ffffffffffffffffffffffffffffffffffffffff1681526020019081526020016000205461164990919063ffffffff16565b600460008373ffffffffffffffffffffffffffffffffffffffff1673ffffffffffffffffffffffffffffffffffffffff1681526020019081526020016000208190555061083760016000803373ffffffffffffffffffffffffffffffffffffffff1673ffffffffffffffffffffffffffffffffffffffff16815260200190815260200160002060000160149054906101000a900460ff16600281111561082957fe5b61164990919063ffffffff16565b600281111561084257fe5b6000803373ffffffffffffffffffffffffffffffffffffffff1673ffffffffffffffffffffffffffffffffffffffff16815260200190815260200160002060000160146101000a81548160ff0219169083600281111561089e57fe5b02179055507fc2d9dbb337ec2bdda312e1a7b4519f40fcb6ab5e1cc300a75e104a77bf56d9343382600460008573ffffffffffffffffffffffffffffffffffffffff1673ffffffffffffffffffffffffffffffffffffffff1681526020019081526020016000205486604051808573ffffffffffffffffffffffffffffffffffffffff1673ffffffffffffffffffffffffffffffffffffffff1681526020018473ffffffffffffffffffffffffffffffffffffffff1673ffffffffffffffffffffffffffffffffffffffff16815260200183815260200182815260200194505050505060405180910390a1600260009054906101000a900473ffffffffffffffffffffffffffffffffffffffff1673ffffffffffffffffffffffffffffffffffffffff16630570a72d6040518163ffffffff167c0100000000000000000000000000000000000000000000000000000000028152600401602060405180830381600087803b158015610a0f57600080fd5b505af1158015610a23573d6000803e3d6000fd5b505050506040513d6020811015610a3957600080fd5b810190808051906020019092919050505015610b3957600260009054906101000a900473ffffffffffffffffffffffffffffffffffffffff1673ffffffffffffffffffffffffffffffffffffffff1663bbb26c633360026003811115610a9b57fe5b6040518363ffffffff167c0100000000000000000000000000000000000000000000000000000000028152600401808373ffffffffffffffffffffffffffffffffffffffff1673ffffffffffffffffffffffffffffffffffffffff16815260200182815260200192505050600060405180830381600087803b158015610b2057600080fd5b505af1158015610b34573d6000803e3d6000fd5b505050505b6001915050919050565b6000600754905090565b600080600090505b600580549050811015610be5578273ffffffffffffffffffffffffffffffffffffffff16600582815481101515610b8857fe5b9060005260206000200160009054906101000a900473ffffffffffffffffffffffffffffffffffffffff1673ffffffffffffffffffffffffffffffffffffffff161415610bd85760019150610bea565b8080600101915050610b55565b600091505b50919050565b600060016000803373ffffffffffffffffffffffffffffffffffffffff1673ffffffffffffffffffffffffffffffffffffffff16815260200190815260200160002060000160149054906101000a900460ff166002811115610c4e57fe5b01905090565b60075481565b6000610c6583610b4d565b1515610c7057600080fd5b8273ffffffffffffffffffffffffffffffffffffffff166000803373ffffffffffffffffffffffffffffffffffffffff1673ffffffffffffffffffffffffffffffffffffffff16815260200190815260200160002060010160009054906101000a900473ffffffffffffffffffffffffffffffffffffffff1673ffffffffffffffffffffffffffffffffffffffff16141515610fe357826000803373ffffffffffffffffffffffffffffffffffffffff1673ffffffffffffffffffffffffffffffffffffffff16815260200190815260200160002060010160006101000a81548173ffffffffffffffffffffffffffffffffffffffff021916908373ffffffffffffffffffffffffffffffffffffffff160217905550610dd96001600460008673ffffffffffffffffffffffffffffffffffffffff1673ffffffffffffffffffffffffffffffffffffffff1681526020019081526020016000205461166290919063ffffffff16565b600460008573ffffffffffffffffffffffffffffffffffffffff1673ffffffffffffffffffffffffffffffffffffffff168152602001908152602001600020819055507f3d8aa22919a8695049fd9aec91d95b789993dc55bf8f07e6407e8a96847022393384600460008773ffffffffffffffffffffffffffffffffffffffff1673ffffffffffffffffffffffffffffffffffffffff1681526020019081526020016000205485604051808573ffffffffffffffffffffffffffffffffffffffff1673ffffffffffffffffffffffffffffffffffffffff1681526020018473ffffffffffffffffffffffffffffffffffffffff1673ffffffffffffffffffffffffffffffffffffffff16815260200183815260200182815260200194505050505060405180910390a1600260009054906101000a900473ffffffffffffffffffffffffffffffffffffffff1673ffffffffffffffffffffffffffffffffffffffff1663bbb26c6333620f42406040518363ffffffff167c0100000000000000000000000000000000000000000000000000000000028152600401808373ffffffffffffffffffffffffffffffffffffffff1673ffffffffffffffffffffffffffffffffffffffff16815260200182815260200192505050600060405180830381600087803b158015610fca57600080fd5b505af1158015610fde573d6000803e3d6000fd5b505050505b6001905092915050565b600581815481101515610ffc57fe5b906000526020600020016000915054906101000a900473ffffffffffffffffffffffffffffffffffffffff1681565b600080600160009054906101000a900473ffffffffffffffffffffffffffffffffffffffff1673ffffffffffffffffffffffffffffffffffffffff163373ffffffffffffffffffffffffffffffffffffffff161415151561108b57600080fd5b6000803373ffffffffffffffffffffffffffffffffffffffff1673ffffffffffffffffffffffffffffffffffffffff16815260200190815260200160002060010160009054906101000a900473ffffffffffffffffffffffffffffffffffffffff1690506110f884610b4d565b151561110357600080fd5b61110c81610b4d565b151561111757600080fd5b61116a6001600460008473ffffffffffffffffffffffffffffffffffffffff1673ffffffffffffffffffffffffffffffffffffffff1681526020019081526020016000205461164990919063ffffffff16565b600460008373ffffffffffffffffffffffffffffffffffffffff1673ffffffffffffffffffffffffffffffffffffffff168152602001908152602001600020819055506112006001600460008773ffffffffffffffffffffffffffffffffffffffff1673ffffffffffffffffffffffffffffffffffffffff1681526020019081526020016000205461166290919063ffffffff16565b600460008673ffffffffffffffffffffffffffffffffffffffff1673ffffffffffffffffffffffffffffffffffffffff16815260200190815260200160002081905550836000803373ffffffffffffffffffffffffffffffffffffffff1673ffffffffffffffffffffffffffffffffffffffff16815260200190815260200160002060010160006101000a81548173ffffffffffffffffffffffffffffffffffffffff021916908373ffffffffffffffffffffffffffffffffffffffff1602179055507fc2d9dbb337ec2bdda312e1a7b4519f40fcb6ab5e1cc300a75e104a77bf56d9343382600460008573ffffffffffffffffffffffffffffffffffffffff1673ffffffffffffffffffffffffffffffffffffffff1681526020019081526020016000205486604051808573ffffffffffffffffffffffffffffffffffffffff1673ffffffffffffffffffffffffffffffffffffffff1681526020018473ffffffffffffffffffffffffffffffffffffffff1673ffffffffffffffffffffffffffffffffffffffff16815260200183815260200182815260200194505050505060405180910390a17f3d8aa22919a8695049fd9aec91d95b789993dc55bf8f07e6407e8a96847022393385600460008873ffffffffffffffffffffffffffffffffffffffff1673ffffffffffffffffffffffffffffffffffffffff1681526020019081526020016000205486604051808573ffffffffffffffffffffffffffffffffffffffff1673ffffffffffffffffffffffffffffffffffffffff1681526020018473ffffffffffffffffffffffffffffffffffffffff1673ffffffffffffffffffffffffffffffffffffffff16815260200183815260200182815260200194505050505060405180910390a1600260009054906101000a900473ffffffffffffffffffffffffffffffffffffffff1673ffffffffffffffffffffffffffffffffffffffff16630570a72d6040518163ffffffff167c0100000000000000000000000000000000000000000000000000000000028152600401602060405180830381600087803b15801561151557600080fd5b505af1158015611529573d6000803e3d6000fd5b505050506040513d602081101561153f57600080fd5b81019080805190602001909291905050501561163e57600260009054906101000a900473ffffffffffffffffffffffffffffffffffffffff1673ffffffffffffffffffffffffffffffffffffffff1663bbb26c63336003808111156115a057fe5b6040518363ffffffff167c0100000000000000000000000000000000000000000000000000000000028152600401808373ffffffffffffffffffffffffffffffffffffffff1673ffffffffffffffffffffffffffffffffffffffff16815260200182815260200192505050600060405180830381600087803b15801561162557600080fd5b505af1158015611639573d6000803e3d6000fd5b505050505b600191505092915050565b600082821115151561165757fe5b818303905092915050565b600080828401905083811015151561167657fe5b80915050929150505600a165627a7a72305820ca4cb9fa4246535cfb89002e0844b3c4508172764d1d211cbd6b8328e029861a0029a165627a7a72305820eb5946dfc317d78d4e6506b41b6248fc801c20f35fe37f1a16f7c375e8ab98730029",
  "source": "pragma solidity ^0.4.21;\n\nimport \"./Voting.sol\";\nimport \"./CoalichainToken.sol\";\nimport \"./Types.sol\";\n\ncontract Main{\n    using SafeMath for uint256;\n\n    mapping (uint256 => uint256) public prices; // maps a uint casted Service enum to it's price\n    address private owner = msg.sender;\n    address private ZuzOwner;\n    address[] private ballotAddresses;\n\n    CoalichainToken private ZuzToken;\n    bool public chargeZuz = true;\n\n\tuint256 balloutId = 0;\n\n   event balloutCreated(address balloutAddress, uint256 correlationId);\n     event Log(string message, address from, address to, uint256 value);\n\n    modifier onlyOwner(address sender) {\n        require(sender == owner);\n        _;\n    }\n\n    modifier onlyKnownContract(address sender) {\n        assert(isKnownContract(sender));\n        _;\n    }\n\n\n    constructor(address ZuzAddress) public {\n        ZuzToken = CoalichainToken(ZuzAddress);\n        ZuzOwner = ZuzToken.adminAddr();\n        prices[uint(Types.Service.CREATE_BALLOT)] = 5000000;\n\n    }\n\n    function changeOwner(address newOwner) public onlyOwner(msg.sender) {\n        require(newOwner != address(0));\n        owner = newOwner;\n    }\n\n    function createBallot(address[] candidates, uint256 correlationId) public returns (bool){\n    \n        Voting bl = new Voting(msg.sender, candidates, owner, correlationId);\n        ballotAddresses.push(bl);\n\n\t\temit balloutCreated(bl, correlationId);\n\t\t\n\t\t    bool isSuccessful = ZuzToken.transferFrom(\n            msg.sender,\n           owner,\n            prices[uint(Types.Service.CREATE_BALLOT)]\n        );\n\n        require(isSuccessful == true);\n\t\t\n\t\treturn true;\n    }\n\n\n\n    function payForService(address voterAddress, uint256 amount)\n        external\n        onlyKnownContract(msg.sender) {\n\n        bool isSuccessful = ZuzToken.transferFrom(\n            voterAddress,\n            owner,\n            amount\n        );\n        \n       require(isSuccessful == true);\n    }\n\n\n    // Constants updaters\n\n\n    function updateBallotPrice(uint256 newPrice) public onlyOwner(msg.sender) {\n        prices[uint(Types.Service.CREATE_BALLOT)] = newPrice;\n    }\n\n\n    // Getters\n\n\n    function getBallotsAddresses() view public returns (address[]) {\n        return ballotAddresses;\n    }\n\n    // Helper functions\n\n    // Should be used both internally and externally, by the KYC server\n    function isKnownContract(address contractAddress) view public returns (bool){\n        for (uint i = 0; i < ballotAddresses.length; i++){\n            if (ballotAddresses[i] == contractAddress){\n                return true;\n            }\n        }\n\n        return false;\n  }\n\n\n}\n",
  "sourcePath": "/home/abhi_21094/Projects/coaliChain/contracts/Main.sol",
  "compiler": {
    "name": "solc",
    "version": "0.4.24+commit.e67f0147.Emscripten.clang"
  },
  "schemaVersion": "2.0.0",
  "updatedAt": "2019-01-08T07:52:12.913Z"
}