{
  "contractName": "Voting",
  "abi": [
    {
      "constant": true,
      "inputs": [
        {
          "name": "",
          "type": "address"
        }
      ],
      "name": "votesReceived",
      "outputs": [
        {
          "name": "",
          "type": "uint256"
        }
      ],
      "payable": false,
      "stateMutability": "view",
      "type": "function"
    },
    {
      "constant": true,
      "inputs": [],
      "name": "_balloutDBId",
      "outputs": [
        {
          "name": "",
          "type": "uint256"
        }
      ],
      "payable": false,
      "stateMutability": "view",
      "type": "function"
    },
    {
      "constant": true,
      "inputs": [
        {
          "name": "",
          "type": "uint256"
        }
      ],
      "name": "candidateList",
      "outputs": [
        {
          "name": "",
          "type": "address"
        }
      ],
      "payable": false,
      "stateMutability": "view",
      "type": "function"
    },
    {
      "inputs": [
        {
          "name": "_owner",
          "type": "address"
        },
        {
          "name": "candidateNames",
          "type": "address[]"
        },
        {
          "name": "_coaliWallet",
          "type": "address"
        },
        {
          "name": "balloutDBId",
          "type": "uint256"
        }
      ],
      "payable": false,
      "stateMutability": "nonpayable",
      "type": "constructor"
    },
    {
      "anonymous": false,
      "inputs": [
        {
          "indexed": false,
          "name": "voterAddress",
          "type": "address"
        },
        {
          "indexed": false,
          "name": "candidate",
          "type": "address"
        },
        {
          "indexed": false,
          "name": "newVotesReceived",
          "type": "uint256"
        },
        {
          "indexed": false,
          "name": "correlationID",
          "type": "uint256"
        }
      ],
      "name": "Voted",
      "type": "event"
    },
    {
      "anonymous": false,
      "inputs": [
        {
          "indexed": false,
          "name": "voterAddress",
          "type": "address"
        },
        {
          "indexed": false,
          "name": "candidate",
          "type": "address"
        },
        {
          "indexed": false,
          "name": "newVotesReceived",
          "type": "uint256"
        },
        {
          "indexed": false,
          "name": "correlationID",
          "type": "uint256"
        }
      ],
      "name": "Unvoted",
      "type": "event"
    },
    {
      "anonymous": false,
      "inputs": [
        {
          "indexed": false,
          "name": "voterAddress",
          "type": "address"
        }
      ],
      "name": "voterApproved",
      "type": "event"
    },
    {
      "constant": true,
      "inputs": [],
      "name": "getCandidatesList",
      "outputs": [
        {
          "name": "",
          "type": "address[]"
        },
        {
          "name": "",
          "type": "uint256[]"
        }
      ],
      "payable": false,
      "stateMutability": "view",
      "type": "function"
    },
    {
      "constant": true,
      "inputs": [],
      "name": "getMyVoterState",
      "outputs": [
        {
          "name": "",
          "type": "uint8"
        }
      ],
      "payable": false,
      "stateMutability": "view",
      "type": "function"
    },
    {
      "constant": true,
      "inputs": [
        {
          "name": "candidate",
          "type": "address"
        }
      ],
      "name": "totalVotesFor",
      "outputs": [
        {
          "name": "",
          "type": "uint256"
        }
      ],
      "payable": false,
      "stateMutability": "view",
      "type": "function"
    },
    {
      "constant": true,
      "inputs": [],
      "name": "getBalloutDBID",
      "outputs": [
        {
          "name": "",
          "type": "uint256"
        }
      ],
      "payable": false,
      "stateMutability": "view",
      "type": "function"
    },
    {
      "constant": false,
      "inputs": [
        {
          "name": "candidate",
          "type": "address"
        },
        {
          "name": "correlationID",
          "type": "uint256"
        }
      ],
      "name": "voteForCandidate",
      "outputs": [
        {
          "name": "",
          "type": "bool"
        }
      ],
      "payable": false,
      "stateMutability": "nonpayable",
      "type": "function"
    },
    {
      "constant": false,
      "inputs": [
        {
          "name": "newCandidate",
          "type": "address"
        },
        {
          "name": "correlationID",
          "type": "uint256"
        }
      ],
      "name": "changeVote",
      "outputs": [
        {
          "name": "",
          "type": "bool"
        }
      ],
      "payable": false,
      "stateMutability": "nonpayable",
      "type": "function"
    },
    {
      "constant": false,
      "inputs": [
        {
          "name": "correlationID",
          "type": "uint256"
        }
      ],
      "name": "unvoteForCandidate",
      "outputs": [
        {
          "name": "",
          "type": "bool"
        }
      ],
      "payable": false,
      "stateMutability": "nonpayable",
      "type": "function"
    },
    {
      "constant": true,
      "inputs": [
        {
          "name": "candidate",
          "type": "address"
        }
      ],
      "name": "validCandidate",
      "outputs": [
        {
          "name": "",
          "type": "bool"
        }
      ],
      "payable": false,
      "stateMutability": "view",
      "type": "function"
    }
  ],
  "bytecode": "0x608060405260006007553480156200001657600080fd5b506040516200197f3803806200197f83398101806040528101908080519060200190929190805182019291906020018051906020019092919080519060200190929190505050826005908051906020019062000074929190620001ee565b5081600660006101000a81548173ffffffffffffffffffffffffffffffffffffffff021916908373ffffffffffffffffffffffffffffffffffffffff16021790555033600260006101000a81548173ffffffffffffffffffffffffffffffffffffffff021916908373ffffffffffffffffffffffffffffffffffffffff16021790555033600360006101000a81548173ffffffffffffffffffffffffffffffffffffffff021916908373ffffffffffffffffffffffffffffffffffffffff16021790555083600160006101000a81548173ffffffffffffffffffffffffffffffffffffffff021916908373ffffffffffffffffffffffffffffffffffffffff1602179055508060078190555060026000808673ffffffffffffffffffffffffffffffffffffffff1673ffffffffffffffffffffffffffffffffffffffff16815260200190815260200160002060000160146101000a81548160ff02191690836002811115620001df57fe5b021790555050505050620002c3565b8280548282559060005260206000209081019282156200026a579160200282015b82811115620002695782518260006101000a81548173ffffffffffffffffffffffffffffffffffffffff021916908373ffffffffffffffffffffffffffffffffffffffff160217905550916020019190600101906200020f565b5b5090506200027991906200027d565b5090565b620002c091905b80821115620002bc57600081816101000a81549073ffffffffffffffffffffffffffffffffffffffff02191690555060010162000284565b5090565b90565b6116ac80620002d36000396000f3006080604052600436106100af576000357c0100000000000000000000000000000000000000000000000000000000900463ffffffff16806330c880c3146100b45780634041ef541461010b5780634aba5f341461016257806358b8112c1461021657806360f135631461025b57806371851be81461028657806372a6d4a0146102e15780638963603514610312578063a85144f41461033d578063b13c744b146103a2578063d2758ddb1461040f575b600080fd5b3480156100c057600080fd5b506100f5600480360381019080803573ffffffffffffffffffffffffffffffffffffffff169060200190929190505050610474565b6040518082815260200191505060405180910390f35b34801561011757600080fd5b5061014c600480360381019080803573ffffffffffffffffffffffffffffffffffffffff16906020019092919050505061048c565b6040518082815260200191505060405180910390f35b34801561016e57600080fd5b506101776104e9565b604051808060200180602001838103835285818151815260200191508051906020019060200280838360005b838110156101be5780820151818401526020810190506101a3565b50505050905001838103825284818151815260200191508051906020019060200280838360005b838110156102005780820151818401526020810190506101e5565b5050505090500194505050505060405180910390f35b34801561022257600080fd5b5061024160048036038101908080359060200190929190505050610670565b604051808215151515815260200191505060405180910390f35b34801561026757600080fd5b50610270610b43565b6040518082815260200191505060405180910390f35b34801561029257600080fd5b506102c7600480360381019080803573ffffffffffffffffffffffffffffffffffffffff169060200190929190505050610b4d565b604051808215151515815260200191505060405180910390f35b3480156102ed57600080fd5b506102f6610bf0565b604051808260ff1660ff16815260200191505060405180910390f35b34801561031e57600080fd5b50610327610c54565b6040518082815260200191505060405180910390f35b34801561034957600080fd5b50610388600480360381019080803573ffffffffffffffffffffffffffffffffffffffff16906020019092919080359060200190929190505050610c5a565b604051808215151515815260200191505060405180910390f35b3480156103ae57600080fd5b506103cd60048036038101908080359060200190929190505050610fed565b604051808273ffffffffffffffffffffffffffffffffffffffff1673ffffffffffffffffffffffffffffffffffffffff16815260200191505060405180910390f35b34801561041b57600080fd5b5061045a600480360381019080803573ffffffffffffffffffffffffffffffffffffffff1690602001909291908035906020019092919050505061102b565b604051808215151515815260200191505060405180910390f35b60046020528060005260406000206000915090505481565b600061049782610b4d565b15156104a257600080fd5b600460008373ffffffffffffffffffffffffffffffffffffffff1673ffffffffffffffffffffffffffffffffffffffff168152602001908152602001600020549050919050565b606080606060006005805490506040519080825280602002602001820160405280156105245781602001602082028038833980820191505090505b509150600090505b6005805490508110156105db576004600060058381548110151561054c57fe5b9060005260206000200160009054906101000a900473ffffffffffffffffffffffffffffffffffffffff1673ffffffffffffffffffffffffffffffffffffffff1673ffffffffffffffffffffffffffffffffffffffff1681526020019081526020016000205482828151811015156105c057fe5b9060200190602002018181525050808060010191505061052c565b6005828180548060200260200160405190810160405280929190818152602001828054801561065f57602002820191906000526020600020905b8160009054906101000a900473ffffffffffffffffffffffffffffffffffffffff1673ffffffffffffffffffffffffffffffffffffffff1681526020019060010190808311610615575b505050505091509350935050509091565b600080600160009054906101000a900473ffffffffffffffffffffffffffffffffffffffff1673ffffffffffffffffffffffffffffffffffffffff163373ffffffffffffffffffffffffffffffffffffffff16141515156106d057600080fd5b6000803373ffffffffffffffffffffffffffffffffffffffff1673ffffffffffffffffffffffffffffffffffffffff16815260200190815260200160002060010160009054906101000a900473ffffffffffffffffffffffffffffffffffffffff1690506107876001600460008473ffffffffffffffffffffffffffffffffffffffff1673ffffffffffffffffffffffffffffffffffffffff1681526020019081526020016000205461164990919063ffffffff16565b600460008373ffffffffffffffffffffffffffffffffffffffff1673ffffffffffffffffffffffffffffffffffffffff1681526020019081526020016000208190555061083760016000803373ffffffffffffffffffffffffffffffffffffffff1673ffffffffffffffffffffffffffffffffffffffff16815260200190815260200160002060000160149054906101000a900460ff16600281111561082957fe5b61164990919063ffffffff16565b600281111561084257fe5b6000803373ffffffffffffffffffffffffffffffffffffffff1673ffffffffffffffffffffffffffffffffffffffff16815260200190815260200160002060000160146101000a81548160ff0219169083600281111561089e57fe5b02179055507fc2d9dbb337ec2bdda312e1a7b4519f40fcb6ab5e1cc300a75e104a77bf56d9343382600460008573ffffffffffffffffffffffffffffffffffffffff1673ffffffffffffffffffffffffffffffffffffffff1681526020019081526020016000205486604051808573ffffffffffffffffffffffffffffffffffffffff1673ffffffffffffffffffffffffffffffffffffffff1681526020018473ffffffffffffffffffffffffffffffffffffffff1673ffffffffffffffffffffffffffffffffffffffff16815260200183815260200182815260200194505050505060405180910390a1600260009054906101000a900473ffffffffffffffffffffffffffffffffffffffff1673ffffffffffffffffffffffffffffffffffffffff16630570a72d6040518163ffffffff167c0100000000000000000000000000000000000000000000000000000000028152600401602060405180830381600087803b158015610a0f57600080fd5b505af1158015610a23573d6000803e3d6000fd5b505050506040513d6020811015610a3957600080fd5b810190808051906020019092919050505015610b3957600260009054906101000a900473ffffffffffffffffffffffffffffffffffffffff1673ffffffffffffffffffffffffffffffffffffffff1663bbb26c633360026003811115610a9b57fe5b6040518363ffffffff167c0100000000000000000000000000000000000000000000000000000000028152600401808373ffffffffffffffffffffffffffffffffffffffff1673ffffffffffffffffffffffffffffffffffffffff16815260200182815260200192505050600060405180830381600087803b158015610b2057600080fd5b505af1158015610b34573d6000803e3d6000fd5b505050505b6001915050919050565b6000600754905090565b600080600090505b600580549050811015610be5578273ffffffffffffffffffffffffffffffffffffffff16600582815481101515610b8857fe5b9060005260206000200160009054906101000a900473ffffffffffffffffffffffffffffffffffffffff1673ffffffffffffffffffffffffffffffffffffffff161415610bd85760019150610bea565b8080600101915050610b55565b600091505b50919050565b600060016000803373ffffffffffffffffffffffffffffffffffffffff1673ffffffffffffffffffffffffffffffffffffffff16815260200190815260200160002060000160149054906101000a900460ff166002811115610c4e57fe5b01905090565b60075481565b6000610c6583610b4d565b1515610c7057600080fd5b8273ffffffffffffffffffffffffffffffffffffffff166000803373ffffffffffffffffffffffffffffffffffffffff1673ffffffffffffffffffffffffffffffffffffffff16815260200190815260200160002060010160009054906101000a900473ffffffffffffffffffffffffffffffffffffffff1673ffffffffffffffffffffffffffffffffffffffff16141515610fe357826000803373ffffffffffffffffffffffffffffffffffffffff1673ffffffffffffffffffffffffffffffffffffffff16815260200190815260200160002060010160006101000a81548173ffffffffffffffffffffffffffffffffffffffff021916908373ffffffffffffffffffffffffffffffffffffffff160217905550610dd96001600460008673ffffffffffffffffffffffffffffffffffffffff1673ffffffffffffffffffffffffffffffffffffffff1681526020019081526020016000205461166290919063ffffffff16565b600460008573ffffffffffffffffffffffffffffffffffffffff1673ffffffffffffffffffffffffffffffffffffffff168152602001908152602001600020819055507f3d8aa22919a8695049fd9aec91d95b789993dc55bf8f07e6407e8a96847022393384600460008773ffffffffffffffffffffffffffffffffffffffff1673ffffffffffffffffffffffffffffffffffffffff1681526020019081526020016000205485604051808573ffffffffffffffffffffffffffffffffffffffff1673ffffffffffffffffffffffffffffffffffffffff1681526020018473ffffffffffffffffffffffffffffffffffffffff1673ffffffffffffffffffffffffffffffffffffffff16815260200183815260200182815260200194505050505060405180910390a1600260009054906101000a900473ffffffffffffffffffffffffffffffffffffffff1673ffffffffffffffffffffffffffffffffffffffff1663bbb26c6333620f42406040518363ffffffff167c0100000000000000000000000000000000000000000000000000000000028152600401808373ffffffffffffffffffffffffffffffffffffffff1673ffffffffffffffffffffffffffffffffffffffff16815260200182815260200192505050600060405180830381600087803b158015610fca57600080fd5b505af1158015610fde573d6000803e3d6000fd5b505050505b6001905092915050565b600581815481101515610ffc57fe5b906000526020600020016000915054906101000a900473ffffffffffffffffffffffffffffffffffffffff1681565b600080600160009054906101000a900473ffffffffffffffffffffffffffffffffffffffff1673ffffffffffffffffffffffffffffffffffffffff163373ffffffffffffffffffffffffffffffffffffffff161415151561108b57600080fd5b6000803373ffffffffffffffffffffffffffffffffffffffff1673ffffffffffffffffffffffffffffffffffffffff16815260200190815260200160002060010160009054906101000a900473ffffffffffffffffffffffffffffffffffffffff1690506110f884610b4d565b151561110357600080fd5b61110c81610b4d565b151561111757600080fd5b61116a6001600460008473ffffffffffffffffffffffffffffffffffffffff1673ffffffffffffffffffffffffffffffffffffffff1681526020019081526020016000205461164990919063ffffffff16565b600460008373ffffffffffffffffffffffffffffffffffffffff1673ffffffffffffffffffffffffffffffffffffffff168152602001908152602001600020819055506112006001600460008773ffffffffffffffffffffffffffffffffffffffff1673ffffffffffffffffffffffffffffffffffffffff1681526020019081526020016000205461166290919063ffffffff16565b600460008673ffffffffffffffffffffffffffffffffffffffff1673ffffffffffffffffffffffffffffffffffffffff16815260200190815260200160002081905550836000803373ffffffffffffffffffffffffffffffffffffffff1673ffffffffffffffffffffffffffffffffffffffff16815260200190815260200160002060010160006101000a81548173ffffffffffffffffffffffffffffffffffffffff021916908373ffffffffffffffffffffffffffffffffffffffff1602179055507fc2d9dbb337ec2bdda312e1a7b4519f40fcb6ab5e1cc300a75e104a77bf56d9343382600460008573ffffffffffffffffffffffffffffffffffffffff1673ffffffffffffffffffffffffffffffffffffffff1681526020019081526020016000205486604051808573ffffffffffffffffffffffffffffffffffffffff1673ffffffffffffffffffffffffffffffffffffffff1681526020018473ffffffffffffffffffffffffffffffffffffffff1673ffffffffffffffffffffffffffffffffffffffff16815260200183815260200182815260200194505050505060405180910390a17f3d8aa22919a8695049fd9aec91d95b789993dc55bf8f07e6407e8a96847022393385600460008873ffffffffffffffffffffffffffffffffffffffff1673ffffffffffffffffffffffffffffffffffffffff1681526020019081526020016000205486604051808573ffffffffffffffffffffffffffffffffffffffff1673ffffffffffffffffffffffffffffffffffffffff1681526020018473ffffffffffffffffffffffffffffffffffffffff1673ffffffffffffffffffffffffffffffffffffffff16815260200183815260200182815260200194505050505060405180910390a1600260009054906101000a900473ffffffffffffffffffffffffffffffffffffffff1673ffffffffffffffffffffffffffffffffffffffff16630570a72d6040518163ffffffff167c0100000000000000000000000000000000000000000000000000000000028152600401602060405180830381600087803b15801561151557600080fd5b505af1158015611529573d6000803e3d6000fd5b505050506040513d602081101561153f57600080fd5b81019080805190602001909291905050501561163e57600260009054906101000a900473ffffffffffffffffffffffffffffffffffffffff1673ffffffffffffffffffffffffffffffffffffffff1663bbb26c63336003808111156115a057fe5b6040518363ffffffff167c0100000000000000000000000000000000000000000000000000000000028152600401808373ffffffffffffffffffffffffffffffffffffffff1673ffffffffffffffffffffffffffffffffffffffff16815260200182815260200192505050600060405180830381600087803b15801561162557600080fd5b505af1158015611639573d6000803e3d6000fd5b505050505b600191505092915050565b600082821115151561165757fe5b818303905092915050565b600080828401905083811015151561167657fe5b80915050929150505600a165627a7a72305820ca4cb9fa4246535cfb89002e0844b3c4508172764d1d211cbd6b8328e029861a0029",
  "source": "pragma solidity ^0.4.21;\n\nimport \"./Main.sol\";\nimport \"./CoalichainToken.sol\";\nimport \"./Types.sol\";\n\ncontract Voting {\n  using SafeMath for uint256;\n\n  enum Stages {\n      UNREGISTERED,\n      REGISTERED,\n      VOTED\n  }\n\n  struct Voter {\n    address voterAddress; // The address of the voter\n    Stages state;\n    address votedFor;\n  }\n\n  mapping (address => Voter) private voterInfo;\n  address private owner;\n  Main private mainContract;\n  address private mainAddress;\n  mapping (address => uint256) public votesReceived;\n  address[] public candidateList;\n  address private coaliWallet;\n  uint256 public _balloutDBId = 0;\n  \n  event Voted(address voterAddress, address candidate, uint256 newVotesReceived, uint256 correlationID);\n  event Unvoted(address voterAddress, address candidate, uint256 newVotesReceived, uint256 correlationID);\n  event voterApproved(address voterAddress);\n\n  constructor(\n      address _owner,\n      address[] candidateNames,\n      address _coaliWallet,\n\t  uint256 balloutDBId)\n      public {\n\n      candidateList = candidateNames;\n      coaliWallet = _coaliWallet;\n      mainContract = Main(msg.sender); // TODO: check if the msg.sender is secure!\n      mainAddress = msg.sender;\n      owner = _owner;\n\t  _balloutDBId = balloutDBId;\n      voterInfo[_owner].state = Stages.VOTED;\n  }\n\n\n\n  function getCandidatesList() view public returns (address[], uint256[]){\n     uint256[] memory votes = new uint256[](candidateList.length);\n     for (uint index = 0; index < candidateList.length; index++) {\n       votes[index] = votesReceived[candidateList[index]];\n     }\n     return (candidateList, votes);\n  }\n\n  function getMyVoterState() public view returns (uint8) {\n    return (uint8(voterInfo[msg.sender].state) + 1);\n  }\n\n\n  function totalVotesFor(address candidate) view public returns (uint256) {\n      require(validCandidate(candidate));\n      return votesReceived[candidate];\n  }\n\n  function getBalloutDBID() view public returns (uint256){\n\treturn _balloutDBId;\n  }\n\n\n  function voteForCandidate(address candidate, uint256 correlationID) public returns (bool) {\n\n      require(validCandidate(candidate));\n\n      \n\tif(voterInfo[msg.sender].votedFor != candidate) {\n\t\t   voterInfo[msg.sender].votedFor = candidate;\n\t\t   votesReceived[candidate] = votesReceived[candidate].add(1);\n\t\t   emit Voted(msg.sender, candidate, votesReceived[candidate], correlationID);\n\t\t   \n\t\t   mainContract.payForService(msg.sender, 1000000);\n\n\t  }\n\n\t  return true;\n    }\n\n\n    function changeVote(address newCandidate, uint256 correlationID) public returns (bool) {\n        require(msg.sender != owner);\n        address oldCandidate = voterInfo[msg.sender].votedFor;\n        require(validCandidate(newCandidate));\n        require(validCandidate(oldCandidate));\n   \n\n        votesReceived[oldCandidate] = votesReceived[oldCandidate].sub(1);\n        votesReceived[newCandidate] = votesReceived[newCandidate].add(1);\n        voterInfo[msg.sender].votedFor = newCandidate;\n        emit Unvoted(msg.sender, oldCandidate, votesReceived[oldCandidate], correlationID);\n        emit Voted(msg.sender, newCandidate, votesReceived[newCandidate], correlationID);\n\n\t\tif (mainContract.chargeZuz()) {\n            mainContract.payForService(msg.sender, uint256(Types.Service.CHANGE_VOTE));\n        }\n\t\t\n\t\t\treturn true;\n    }\n\n\n    function unvoteForCandidate(uint256 correlationID) public returns (bool) {\n        require(msg.sender != owner);\n        address candidate = voterInfo[msg.sender].votedFor;\n  \n        votesReceived[candidate] = votesReceived[candidate].sub(1);\n        voterInfo[msg.sender].state = Stages(uint(voterInfo[msg.sender].state).sub(1));\n        emit Unvoted(msg.sender, candidate, votesReceived[candidate], correlationID);\n\n       if (mainContract.chargeZuz()) {\n            mainContract.payForService(msg.sender, uint256(Types.Service.UNVOTE));\n        }\n\t\t\n\t\treturn true;\n    }\n\n    function validCandidate(address candidate) view public returns (bool) {\n        for(uint i = 0; i < candidateList.length; i++) {\n            if (candidateList[i] == candidate) {\n                return true;\n              }\n          }\n\n        return false;\n    }\n}\n",
  "sourcePath": "/home/abhi_21094/Projects/coaliChain/contracts/Voting.sol",
  "compiler": {
    "name": "solc",
    "version": "0.4.24+commit.e67f0147.Emscripten.clang"
  },
  "schemaVersion": "2.0.0",
  "updatedAt": "2019-01-08T07:52:12.917Z"
}